:100000000C9432010C944F010C946A010C944F0132
:100010000C944F010C944F010C948B140C944F01D1
:100020000C944F010C944F010C944F010C944F0110
:100030000C944F010C944F010C9412150C944F0129
:100040000C944F010C944F010C944F010C944F01F0
:100050000C944F010C944F010C944F010C944F01E0
:100060000C944F010C944F0135001E001F0020001E
:100070002100260027002D002E0031002B00140047
:100080001A0008002200250013002F0030002A006B
:10009000290004001600150023002400120034007B
:1000A00028004C00E1001D00070017001C0018008C
:1000B0000C00330052004600E3001B0009000A0058
:1000C0000B000D000E000F00E5004F00215206004E
:1000D00019000500110010003600370038005100EB
:1000E000E000E2002C002C002C00E600215265000C
:1000F000E700500039003A003B003C003D00420060
:1001000043004400450049000100010001000100D6
:100110003E0041000100AA00A90001000100010009
:10012000010001003F00400001000100010001004A
:1001300001000100010001000100010001000100B7
:100140004B0001000100010001000100010001005D
:100150000100010001004D0001000100010001004B
:10016000010001000100010001004E00010001003A
:1001700001000100010001000100010001004A002E
:1001800009023B00020100A0320904000001030142
:100190000100092101010001224400070581030833
:1001A0000001090401000103000000092101010010
:1001B000012232000705830308000112011001002B
:1001C000000008EDFE0000010001020001120345DD
:1001D0000067007900700074004200610072000046
:1001E0000006035A005A000000040309040501092F
:1001F00080A101850319012AB700150126B70095D2
:100200000175108100C0050C0901A10185041901C7
:100210002AA002150126A002950175108100C005D3
:10022000010906A101050719E029E7150025019537
:1002300008750181029501750881030507190029D8
:10024000FF150026FF0095067508810005081901B5
:100250002905150025019505750191029501750384
:100260009103C00011241FBECFEFD8E0DEBFCDBF89
:1002700011E0A0E0B1E0EAE8F2E302C005900D92DF
:10028000A639B107D9F722E0A6E9B1E001C01D9275
:10029000AD3BB207E1F70E9499110C940E190C9432
:1002A0000000A82FB92F80E090E041E050EA60956F
:1002B00030E009C02D9182279795879510F084270B
:1002C0009527305EC8F36F5FA8F30895EADF8D933A
:1002D0009D930895CF93CFB7CF93DF93C3954B9B57
:1002E000E9F74B9B10C04B9B0EC04B9B0CC04B9B2C
:1002F0000AC04B9B08C04B9B06C0C0919402C3959B
:10030000C09394028EC06F93C0919302DD27C556AF
:10031000DD4F2F9365E54B9B03C02F916F91E1CF8C
:100320000F931F934F9320E040E15F9309B10C704E
:1003300003FB27F93F9350E03BE039C01C70406459
:100340002F77012F5F5F1EC0406819B11C702F7797
:1003500052501FC0406409B12F770C70D1F15F5F1C
:1003600000C023C0406219B12F771C7091F15F5F0C
:1003700000C025C00C701027515012F45D5F0000C2
:10038000115027952C3F19B1C8F61C700127015058
:1003900027952C3FC8F64227499309B10C701027C6
:1003A0004F73115027952C3FA8F64695469519B1E5
:1003B0001C7079F00127015027952C3F98F66B5A55
:1003C00060F3315009B1B0F600C012E01CBB002749
:1003D0001CC03B503195C31BD04012E01CBB0881B0
:1003E000033C21F10B3411F1209190021981110F7E
:1003F0001213EDCF4A81441F093679F10D3211F005
:10040000013E29F74F7009F0042F009399023F91A4
:100410005F914F911F910F912F916F91CCB3C1FDBF
:100420005DCFDF91CF91CFBFCF91189520919902E9
:10043000222369F310919702112309F049C0343047
:100440000AF448C0309397022093920210919302CD
:100450003BE0311B309393023DC000919702013085
:10046000BCF50AE54F7049F43091110134FD33C0F9
:1004700000931101CDE6D2E032C0433059F0443050
:1004800091F03091780234FD26C000937802C9E7DC
:10049000D2E025C03091B10234FD1DC00093B102FD
:1004A000C2EBD2E01CC03091840234FD14C0009332
:1004B0008402C5E8D2E013C0052710E000C00000A8
:1004C0000BB91AC0052710E0221F1DC010E021C083
:1004D0004AE502C032ED432FC4E1D0E032E01AB168
:1004E0001C605B9A0BB11AB95CE020E865E320FF61
:1004F00005270BB9279517951C3FF0F66695B8F7B9
:10050000B1F720FF05270BB9279517951C3FD0F6AB
:100510002795179517FF052700001C3F0BB9B0F66C
:1005200029913A9519F7037F10919802110FC6513E
:10053000D0400BB911F01093900212E01CBB086080
:100540001AB1137F402F437F54E05A95F1F70BB94E
:100550001AB94BB95CCF8230B8F46730A8F44A308E
:1005600098F450E09AE0699F400D511D1124FA0162
:1005700096E4899FE00DF11D1124EE0FFF1FE8594D
:10058000FF4F85919491089581E090E008950E9435
:10059000AB02089581E008950E94CA02089581E0A7
:1005A00008950E94CA0208950E94D10208950895F4
:1005B0000E94D7020895A6E0B0E0E1EEF2E00C94CC
:1005C0007E1849835A839E8330919D0189819A8147
:1005D00031111AC03E81332399F0222389F00E9401
:1005E0006E08182F682F89819A810E944A086981B4
:1005F0007A81812F0E94390F2696E3E00C949A1895
:100600000E945C08182FF3CF0E946E0869817A81DE
:10061000F1CFFC01262F4081518162817381848159
:1006200095810E94DB020895CF93DF93EC0161E096
:100630000E940903BE010E94CC02DF91CF91089570
:10064000CF93DF93EC0160E00E940903BE010E949A
:10065000D802DF91CF91089521E030E0A90102C0D6
:10066000440F551F8A95E2F7CA010E946C0708954E
:10067000CF93C82F81E090E00C2E02C0880F991F05
:100680000A94E2F70E94960C8C2F0E942C03CF91C3
:10069000089581E008950E9449030895CF93C82FDB
:1006A0000E941F078C2F0E944B032FEF84E39CE0D6
:1006B000215080409040E1F700C00000CF910895A4
:1006C00081E00E944E030E943615089580E00E944A
:1006D0004E030E944B1508950F931F93CF93DF9302
:1006E0008C0161E00E940903EC01B8010E94D40270
:1006F000811106C080E0DF91CF911F910F91089585
:10070000B801CE010E941D138823A1F3B801CE01C8
:100710000E94DD11882371F3B801CE010E94B3114C
:10072000882341F3B801CE010E943D10882311F3C4
:10073000F8018581882361F0C330FCE7DF07E9F029
:1007400058F4C115ECE7DE07A9F0C130DC47B9F079
:10075000C8010E94CF02CFCFCB358CE7D807A9F0D4
:10076000CC35ECE7DE0771F0CA35DC4789F70E942B
:10077000710CEECF0E946003BDCF0E94790C0E94E5
:100780006603B8CF0E94670CE3CF0E94750CE0CFE0
:100790000E946D140E94EF0308950E94F3030E94CB
:1007A0007214089581E0089581FF02C0459A08956A
:1007B00045980895CF93DF93D82F0E94D203C82F76
:1007C000882319F08D2F0E94D4038C2FDF91CF91B5
:1007D00008953D9A459808950E94DA03089580E0AF
:1007E0000E94EC0308950E9466130E94EC03089592
:1007F000CF930E946613C82F809198018C1779F0CF
:10080000C09398010E94F7146093990170939A0124
:1008100080939B0190939C018C2F0E94EC03CF91BD
:100820000895ADE0B0E0E7E1F4E00C947F1848876C
:1008300059876A877B878C879D8791110E94BB0BA4
:100840001F8286E0FE013896DE01119601900D921E
:100850008A95E1F78D8181110DC029813A814B8103
:100860005C816D817E818F810E94050B2D96E2E077
:100870000C949B18CE0101960E9414038111EDCFB8
:10088000F5CFFC012481213021F4808191810E94E7
:10089000A0080895CF93C82F882399F08CEF8C0F70
:1008A000813A88F48C2F0E94DD13882329F08C2F45
:1008B0000E9420140E94160C8C2F0E9418140E9473
:1008C000160CCF91089580E28C0F883048F4C770E1
:1008D00081E001C0880FCA95EAF70E949E0BEFCF16
:1008E000EBE5EC0FE33040F4F0E0E85BFE4F808195
:1008F00090E00E947E13E5CFC85ACB3110F7EC2F61
:10090000F0E0EE0FFF1FEE5EFE4F808191810E94AE
:10091000A313D7CF882339F19CEF980F913A28F48D
:100920000E9420140E94160C089590E2980F9830AF
:1009300050F4877091E001C0990F8A95EAF7892FEA
:100940000E94A40BEFCF9BE5980F933028F490E022
:1009500080E00E947E130895885A8B3120F490E045
:1009600080E00E94A31308951F93CF93DF93182F65
:10097000EB010E944A04209739F4812F0E948A04D7
:10098000DF91CF911F9108958FE99FE00197F1F7D3
:1009900000C000002197EFCF70E060E0893311F4D0
:1009A00060E570E00E94B4040895882321F00E945D
:1009B0009E0B0E94160C0895882321F00E94A40B20
:1009C0000E94160C0895B0E0A0E0E9EEF4E00C946B
:1009D00078186C01D62FC72FFC011581068102956E
:1009E0000F700E94940BE82E8823F9F0E12E11235A
:1009F000E1F08C2F807F803461F080E28D0F8830B1
:100A000008F18C2F807E803221F4D230D8F0002380
:100A1000C9F080914C0282FF15C082E00E943B0C1D
:100A20000E94940B91E0E82EE926BC2EB2949FE040
:100A3000B922FBE0FB15B8F1EB2DF0E0E05FF64EDC
:100A40000C946918E12CF1CF0C2F0F70C07F11F0BE
:100A50000295007F112399F0002359F080E28D0F59
:100A6000883010F0D11107C0802F0E949E0B0E9489
:100A7000160C8D2F5AC0802F0E94AE0BF8CF8D2FF1
:100A80000E948A04002379F080E28D0F883010F0F4
:100A9000D11104C0802F0E94A40B03C0802F0E949C
:100AA000B40B0E94160CEB2DE850FF0B349720F48A
:100AB0000E9466130E94EC03EE2089F00E94900BC6
:100AC00080FD0DC0F60115820E948A0B0E94A807C6
:100AD000C6010E94EA060E948A0B0E94B807CDB7A1
:100AE000DEB7E9E00C9494182C2F2F70F22EC07F03
:100AF000C03219F0F29480EFF822DD2341F0D130BA
:100B0000D1F1112309F444C00023F1F0B2CF809158
:100B10004C0282FD15C0112359F0FF2029F08F2DC2
:100B20000E949E0B0E94160C80E00E944A04BBCFDC
:100B300080E00E948A04FF2009F4B5CF8F2DABCF4F
:100B4000112369F0011104C08F2D0E94D504ABCF91
:100B5000013009F0A8CF8F2D0E94D20BA4CF011134
:100B6000A2CF8F2D0E94DC048F2D0E94DE0B8F2DD3
:100B70000E94C20B98CF112321F0063008F093CFCA
:100B8000E3CF053008F08FCF8F2D0E94DC048BCF90
:100B90000023D1F3D93349F43FEF87EE93E031508E
:100BA00080409040E1F700C000008D2F0E948A0431
:100BB0007ACF8C2F86958695837069F0813009F005
:100BC00072CF8D2F9C2F9370111102C080E090E0A6
:100BD0000E94A31368CF8D2F9C2F9370111102C018
:100BE00080E090E00E947E135ECF8C2F8370A1F591
:100BF000111159CF4D2F429546954770440F440F20
:100C00002D2F2F7030E0042E02C0220F331F0A94C4
:100C1000E2F790E080E0D4FF09C08FE090E002C0EE
:100C2000880F991F4A95E2F780959095C695C695CD
:100C3000C370822B932BC23049F058F4C13019F0A5
:100C40000E94780730CF0E946F072DCF0E94810746
:100C50002ACF0E946C0727CF8695112311F08C2F85
:100C60008170882309F41FCF4D2F42954695477018
:100C7000440F440F2D2F2F7030E0042E02C0220F9E
:100C8000331F0A94E2F790E080E0D4FF09C08FE0C0
:100C900090E002C0880F991F4A95E2F780959095E1
:100CA000C695C695C370822B932BC23049F058F479
:100CB000C13019F00E94E307F6CE0E94DA07F3CEA6
:100CC0000E94EC07F0CE0E949007EDCECF7011236A
:100CD00029F08C2F0E94A8078D2F37CF8D2F0E94CF
:100CE000DC048C2F0E94B807DECED23F41F160F4C5
:100CF000D03FB9F0D13F81F0112309F443C0011175
:100D0000B8CE8C2F8F711FC0D33F01F1D43FA1F714
:100D100080914C0282FD24C08C2F8F71112311F31E
:100D200012C0112341F0053008F0BDCE8C2F8F7119
:100D30000E94CA07B8CE063008F0B5CEF7CF8C2F88
:100D40008F711111CFCF0E94A807ADCE112329F0CA
:100D50008C2F8F710E949C07A6CE0E949707A3CE6E
:100D6000112331F063E08C2F8F710E941D0C9BCEFC
:100D700081E00E943B0C023008F495CE82E00E9494
:100D80003B0C91CE002359F0D93309F00ECFEFEF91
:100D9000F7EE23E0E150F0402040E1F704CF8C2F44
:100DA0008F71A0CF0F931F93CF93DF93EC016881D6
:100DB00079818D810E94AB088C010E94F5070E9409
:100DC0006B07B801CE010E94E304DF91CF911F9120
:100DD0000F910895CF93DF93EC018C81882399F0D4
:100DE000CE010E946C03811111C00E94940B8823D4
:100DF00051F08D81882339F080914C0282FF03C02D
:100E000082E00E943B0CDF91CF910895CE010E94B9
:100E1000D206CE010E942003F6CF90E080E00E942F
:100E20007E1390E080E00E94A3130E94BB0B0E94FF
:100E3000160C08950E9428140E940D0708950E9420
:100E4000AB0B0E941A07089592959F70963091F00F
:100E500058F4925F9F70923058F4803F19F030F44C
:100E6000883E30F481E008959A5FF4CF843FD1F357
:100E700080E00895883EB0F3813FD1F7F3CFFC01C5
:100E80002481222339F0808191810E94A0080E9450
:100E90002407089580E00895A6E0B0E0E2E5F7E0D9
:100EA0000C947F182696E2E00C949B18A7E0B0E023
:100EB000ECE5F7E00C947F182796E2E00C949B1881
:100EC00008950E94600708950E9461079093C501EC
:100ED0008093C401089508950E94640708952091A5
:100EE000C4013091C501822B932B0E9464070895A1
:100EF0002091C4013091C501822393230E9464078D
:100F000008952091C4013091C501822793270E9442
:100F1000640708950E94600708950E948A07089553
:100F20000E948D079093C3018093C201089590E0C1
:100F300080E00E949007089521E030E0A90102C0FE
:100F4000440F551F8A95E2F7CA010E949007089541
:100F500021E030E002C0220F331F8A95E2F7809132
:100F6000C2019091C301822B932B0E949007089598
:100F700021E030E002C0220F331F8A95E2F720956E
:100F800030958091C2019091C301822393230E94E6
:100F90009007089521E030E002C0220F331F8A95A8
:100FA000E2F78091C2019091C301822793270E94AA
:100FB000900708952091C2013091C301822B932B99
:100FC0000E94900708952091C2013091C3018223AD
:100FD00093230E94900708952091C2013091C3018C
:100FE000822793270E94900708950895262F27703F
:100FF00091E001C0990F2A95EAF723E0769567956D
:101000002A95E1F7660F771F660F771FFA01E60F43
:10101000F71F50E040E0682F70E08191DF011197E9
:101020009B01042E02C0369527950A94E2F72170A1
:1010300021952827292328272C934F5F5F4F443081
:10104000510559F70895A82FA77023E09695879525
:101050002A95E1F7880F991F880F991FFB01E80F68
:10106000F91F50E040E080E0219130E00A2E02C0FC
:10107000369527950A94E2F721703327042E01C094
:10108000220F0A94EAF7822B4F5F5F4F44305105DD
:1010900059F70895262F973070F48A3060F4682F3E
:1010A00070E08AE0989F600D711D11244EE951E0B7
:1010B000822F0E94F6070895292F973068F48A300E
:1010C00058F490E06EE971E03AE0239F800D911DA5
:1010D00011240E942308089580E00895B0E0A0E064
:1010E000E4E7F8E00C9478187C010091C2011091BB
:1010F000C3018091C4019091C501082B192BCFE049
:10110000D0E0CC24C394D12CBC2EC6010C2E02C03E
:10111000880F991F0A94E2F780239123892B49F4C1
:10112000219790F7B12C8B2DCDB7DEB7E9E00C9469
:101130009418B7018C2F0E94450F019789F3F3CFC4
:10114000CF93DF93EC010E946E08BE010E94450F11
:10115000DF91CF9108951F93CF93DF93EB0190918F
:101160009D01992339F0CB010E94A008DF91CF9116
:101170001F910895882369F0CB010E946E08182FF3
:10118000682FCE010E944A08BE01812F0E94450FA0
:10119000EDCFCB010E945C08182FF6CF1F93CF93A1
:1011A000DF93C091C60117E08091C7018C1304C082
:1011B000DF91CF911F910895D0E01C9FF0011D9FFA
:1011C000F00D1124E853FE4F20813181428153817B
:1011D0006481758186810E9456072196C770E4CF8D
:1011E00020910002309101024091020250910302CD
:1011F0006091040270910502809106020E945607D8
:101200000895CF93DF9380910602807F09F04DC04F
:1012100080910502882309F448C0E091C6015091ED
:10122000C701C0910102D091000260910202709149
:10123000030247E05E17C9F18E2F90E0E49FF001B2
:101240001124E853FE4F2481222391F1489FF0019D
:10125000499FF00D1124DF01A853BE4F11962C9128
:1012600011972C1325C02C912D1322C015962C916B
:10127000159721111DC012962D913C91261B370BFD
:10128000283C3105A8F4809106028F70806180931C
:101290000602E253FE4F80818F708061808380E080
:1012A00092E00E94EA060E94CE08DF91CF91089555
:1012B000FC013196E770BECF482F2091C601909176
:1012C000C70157E0291302C080E0089530E0529F23
:1012D000F001539FF00D1124E853FE4F81816813F4
:1012E00006C08081481303C085818111EECF2F5F36
:1012F0003F4F2770E7CFA4E1B0E0E1E8F9E00C94BC
:1013000075188C0186E0F801DE011F9601900D92A0
:101310008A95E1F7F8018481E58090E0A92E92E0BA
:10132000B92E9091040291111FC08823D1F0EE20B4
:10133000A9F0C8010E943F07F82E882379F087E0C2
:10134000F801D50101900D928A95E1F7C5010E943F
:1013500041040E9401090E94F0085FC0C8010E9478
:10136000EA06FF24F39459C0C080D1808280938024
:10137000F09005022091020230910302A401421B69
:10138000530BFF2009F4F9C0483C510508F0A7C0F1
:10139000882309F442C09091010280910602282F0F
:1013A000207F09F05CC09D1116C090910002C91207
:1013B00012C0E1104EC08F708061809306020E94BF
:1013C000F00880E092E00E94EA0680910602F801AF
:1013D0008683F12C22C0E1103CC06D2D8C2D0E9423
:1013E0005C096D2D8C2D0E945C09E82E8111F1CFD6
:1013F000CF86D88A8F8598890E94A008292F2295A8
:101400002F70243078F49F702230A8F09923B9F01F
:10141000F8019681907F99F4FE2C8F2D6496ECE074
:101420000C9491182A5F2F70223068F0C8010E9436
:10143000EA06EF2CF1CF992311F0882369F3805E3F
:10144000883050F3F3CF803F38F3815F833070F7FB
:10145000E3CF80910602816080930602BACF9D118E
:1014600013C090910002C9120FC0E1100DC0868315
:10147000C8010E94EA0687E0F801A0E0B2E001900E
:101480000D928A95E1F767CFC8010E943F07882334
:1014900009F464CFEE2009F461CF80910602803216
:1014A00088F02091000230910102398728879B86BD
:1014B0008A86909104029C871D868E87CE010896AD
:1014C0000E94EA0687E0F801A0E0B2E001900D92E8
:1014D0008A95E1F70E9401090E94F00842CF90919D
:1014E0000602292F207FA1F4682D9A8A898AA601F5
:1014F0007A899E2D0E944C0780E092E00E94EA06C5
:1015000087E0F50111928A95E9F70E94F00861CF12
:10151000882309F482CF809101028D1110C080913F
:101520000002C8120CC0E1100AC09683C8010E94D4
:10153000EA0687E0F50111928A95E9F76ECFC801B6
:101540000E943F07882309F409CFEE2009F406CF53
:1015500080910602803208F4B5CF209100023091CC
:1015600001023A8329839C828B82909104029D839D
:101570001E828F83CE010196A3CF483C5105B8F55A
:10158000882309F4EECEFE2CEE2009F4E7CE8091FC
:1015900001028D111EC080910002C8121AC08091F4
:1015A000060280FD0DC0982F907F51F08683903FFA
:1015B00009F45ECF982F907F905F8F70892B57CF63
:1015C00087E0F801A0E0B2E001900D928A95E1F782
:1015D00024CFC8010E943F07811174CF8091060279
:1015E000816080930602C8010E94EA0616CF682D2A
:1015F0009A8A898AA6017A899E2D0E944C0787E0E3
:10160000F50111928A95E9F7A6CEAEE0B0E0EBE0E5
:10161000FBE00C947E18288739874A875B876C87A4
:101620007D878E87CE0108960E947B098823B1F0C2
:101630006C85662341F0288539854A855B857D85E3
:101640008E850E94560717E08091C6019091C701D0
:1016500089133DC02E96E3E00C949A1887E0FE01B2
:101660003896DE01119601900D928A95E1F78C85EE
:10167000882349F32091C70130E0C90101968770A2
:1016800099274091C6014817190699F097E0929F53
:10169000D001939FB00D1124A853BE4FFE01319687
:1016A00001900D929A95E1F78093C7010E94CE08B0
:1016B000CACF0E941F071092C7011092C60187E08F
:1016C000E0E0F2E0DF011D928A95E9F7BCCF819F4F
:1016D000C001112488539E4F0E947B09882309F47E
:1016E000B9CFE091C6011E9FF0011124E853FE4FCF
:1016F00020813181428153816481758186810E947C
:1017000056078091C60190E00196877099278093D3
:10171000C6019ACF80910702869586958695089591
:10172000809107028770089590910702977081E079
:1017300009F480E0089580911302089590911302B6
:10174000892B80931302089580959091130298231A
:10175000909313020895109213020895909112022B
:10176000892B8093120208958095909112029823FC
:1017700090931202089510921202089508950E9403
:10178000BE0B089590910802292F282331F08095EF
:101790008923809308020E94BF0B089508950E9438
:1017A000CE0B089590910902292F2823281729F09C
:1017B000982B909309020E94CF0B089590910902F3
:1017C000292F282331F080958923809309020E94D4
:1017D000CF0B089580910902882329F01092090205
:1017E00080E00E94CF0B08950F931F93CF93009139
:1017F000000110910101C091130280911202C82BC7
:1018000080910902882331F0C82B0E94C8138111EE
:101810000E94EA0BF801C0838091000190910101C0
:101820000E947313CF911F910F9108950E94F40BA2
:10183000089508950E94190C089590914C0292FF0A
:1018400011C098E0899F90011124622B60930702D8
:101850000E94A807809107028695869586950E942A
:101860001A0C08950E94A80708951092070280E0BC
:101870000E941A0C08959091070280958923809305
:101880000702282F277069F4891759F090914C02AC
:1018900092FF07C08695869586950E94B8070E949C
:1018A000350C089590914C0292FB222720F92817BD
:1018B00069F080FB92F990934C0280914B029091D9
:1018C0004C020E94A10C82E00E943B0C0895809182
:1018D0004C0282FB882780F991E089270E94520CF4
:1018E000089581E00E94520C089580E00E94520CFD
:1018F00008956FEF7FEF90E080E00E94F818089560
:1019000090E080E00E94C41821E0853E9E4F09F0DF
:1019100020E0822F089582E090E00E94BC18089594
:1019200083E090E00E94BC1890E00895682F83E067
:1019300090E00E94DA18089584E090E00E94C418B4
:101940000895BC0184E090E00E94F8180895AB016E
:10195000BC018FE090E00E94EC180895AB01BC013F
:1019600083E190E00E94EC18089560E070E0CB0104
:101970000E94AE0C089560E070E0CB010E94A70CBD
:101980000E94B50C0895A8E0B0E0E9ECFCE00C94EE
:101990007F1865EE7EEF90E080E00E94F81860E02E
:1019A00082E090E00E94DA1881E090E09093C50117
:1019B0008093C4010E94960C60E074E184E090E0A2
:1019C0000E94F81860E086E090E00E94DA1860E07B
:1019D00087E090E00E94DA1840E050E0BA0188E029
:1019E00090E00E94EC1860E083E290E00E94DA1838
:1019F00060E08CE090E00E94DA1860E08DE090E01A
:101A00000E94DA1819821A821B821C821D821E8291
:101A10001F82188648E050E067E170E0CE01019631
:101A20000E94CA1840E050E0BA018FE190E00E94A5
:101A3000EC180E94BB0C2896E2E00C949B180E94C4
:101A4000C30C0895682F8EE090E00E94DA18089584
:101A5000A6E0B0E0EEE2FDE00C947D180E94EB14ED
:101A60008C0180911402909115028017910781F0EA
:101A700019821A820E94EB14682F49815A81792FAA
:101A800080E090E00E94110410931502009314026C
:101A90002696E4E00C9499180E94F71460932802AB
:101AA0007093290280932A0290932B026093240260
:101AB000709325028093260290932702089508953B
:101AC00008950E945F0D089508950E94640D089581
:101AD0008BE390E10E94AE110E94600D0E94610DA7
:101AE000089581E008950E94710D08950E94710D7E
:101AF0000895089508950E94790D0E947A0D089521
:101B00000E94800C811102C00E941F0D0E948B0C4C
:101B100080932C020E949C0C90934C0280934B0269
:101B20000E94900C0E946C078091C2019091C301A9
:101B30000E948D0708950E94E2140E940C110E94D9
:101B4000800D0E94E9030E94650D0895A6E0B0E0B3
:101B5000ECEAFDE00C9473180E94730D811108C02B
:101B60000E94280D0E94F8032696EEE00C948F1830
:101B70000E94221126E1822E22E0922E640110E0C2
:101B8000F601E190F1906F01812F0E9457101F5FC5
:101B9000173009F44BC0E816F90691F380912C0236
:101BA00081FD0E9460100E94760D782E10E0662460
:101BB0006394812F0E9457107C01F401A190B19091
:101BC0004F018A159B0561F1A826BF2400E0CC24B3
:101BD000C394D12CC5018C219D21892BC1F0772084
:101BE000B1F009831A830E94EB149C838B836D826E
:101BF00021E0C7018C219D21892B09F420E0498136
:101C00005A816B817C818D81922F0E9411040F5F1C
:101C1000CC0CDD1C0A30F1F6F4013297F182E0823F
:101C20001F5F173031F60E944C0D9CCFE816F90665
:101C300009F0B4CF95CF1F93CF93DF930E944A0F43
:101C4000EC01C11580E5D807F0F5C11580E4D8078F
:101C500008F09CC0C03ED10520F5CD3CD10508F070
:101C600082C0C83AD10578F4C53AD10508F073C0EE
:101C7000C130D10519F1209709F1C430D105F0F434
:101C8000D0E0C0E01BC0C33CD105D0F7C85AD0E0BB
:101C9000CC0FDD1FC55BDE4F0990D881C02DD46409
:101CA0000DC0C11580E2D80708F0D1C0C11581E090
:101CB000D80708F05AC0C83ED10510F7CE01DF9111
:101CC000CF911F910895C03682E5D80718F5C0342A
:101CD00082E5D80708F06BC0C03282E5D80708F06B
:101CE0005FC0C11582E5D80708F497C02C2F269550
:101CF000269580E2289F900111248C2F8370C1E0EB
:101D0000D0E002C0CC0FDD1F8A95E2F7C22BD32BA7
:101D1000DD68D4CFC03A82E5D80760F4C03882E5E8
:101D2000D80708F459C0CF71D0E0DC2FCC27C46F9E
:101D3000D06AC4CFC03C82E5D80708F462C0C03E78
:101D400082E5D80708F09CCFDC2FCC27CC27DF71A9
:101D5000C06FD06AB3CFC55AD0E0CF57DE4FC8812D
:101D6000D0E0D064ABCFD065A9CF8D2F0E94EC0F0F
:101D7000182FCE0199270E944A0FC12FD0E0DC2FE7
:101D8000CC27CC27DF71C82BD92B98CFCE01992730
:101D90000E944A0FCC27DF70C82BD92BD06A8ECF78
:101DA000CF71D0E0DC2FCC27C16FD06A87CF2C2F2A
:101DB00026952695277080E2289F900111248C2F6C
:101DC0008370C1E0D0E002C0CC0FDD1F8A95E2F73E
:101DD000C22BD32BDC6872CF2C2F2695269527702B
:101DE00080E2289F900111248C2F8370C1E0D0E005
:101DF00002C0CC0FDD1F8A95E2F7C22BD32BDA6825
:101E00005DCF8C2F8F710E94EC0FC82FD0E0DC2F9C
:101E1000CC27CC27DF71D06251CF8C2F8F710E94DD
:101E2000EC0F55E0D695C7955A95E1F7CF70D0E005
:101E3000DC2FCC27282F30E084FF05C044E0220FA0
:101E4000331F4A95E1F7C22BD32BD06937CF8D2FA3
:101E50008F710E94EC0F182FCE0199270E944A0F14
:101E6000C12FD0E0DC2FCC27CC27DF71C82BD92B9A
:101E7000D2CF462F773030F46A3020F4672F0E949B
:101E8000C702089590E080E008950E94390F0E94F3
:101E90001B0E089582389105B9F1B0F48133910594
:101EA00009F47DC048F48932910509F46DC08A3285
:101EB000910509F47BC008958533910509F45FC04D
:101EC0008933910509F10895833E9105D9F138F4DC
:101ED000803E910529F1823E910579F10895863E73
:101EE0009105D9F1873E910509F43EC0843E9105E4
:101EF00041F520914C0221FF24C080914B0284FDCA
:101F000019C087EE90E0089520914B02237009F0EC
:101F10005AC020914C0223FF14C089E290E008953A
:101F200020914B0220FD38C030914C0230FF09C097
:101F300024FF43C090E080E0089520914B0222FDF1
:101F4000F7CF089520914B0222FD3AC030914C0208
:101F500030FD39C024FFF5CFEDCF20914B0223FF98
:101F6000F0CF24FDE7CFCDCF20914B0223FD2EC033
:101F700030914C0231FFEECF84EE90E00895209135
:101F80004B0225FFDECFC9CF20914B0225FD21C09A
:101F900020914C0223FFD5CF89E390E0D2CF20914E
:101FA0004B0226FFCECF8AE290E0089520914B02AB
:101FB00026FFC7CF81E390E0089583EE90E0089577
:101FC00082EE90E0089580EE90E0089586EE90E035
:101FD000089585E390E0089590914B0292FF10C020
:101FE00041E0282F2471243009F040E031E0282F0F
:101FF0002871283009F030E0431711F02CE08227D7
:1020000093FF10C041E0282F2471243109F040E0F3
:1020100031E0282F2871283109F030E0431711F002
:102020002CE0822730914C0230FF10C051E0282F65
:102030002171213009F050E041E0282F287128302B
:1020400009F040E0541711F029E0822731FF10C059
:1020500041E0282F2171213109F040E031E0282FA3
:102060002871283109F030E0431711F029E0822768
:1020700094FD877E089580E00895CF939C01205EB3
:102080003245C1E02032310538F4FB01C581C11170
:1020900003C08F710E9438038C2FCF91089508954B
:1020A0000E944F10089508950E9453100895E82F3C
:1020B000F0E0EE0FFF1FE55AFD4F808191810895FA
:1020C000089580EA8A95F1F7089500C008950E9466
:1020D00061100895F894E82FE295EF70F0E031A1D7
:1020E000282F2F7081E090E001C0880F2A95EAF731
:1020F000982F9095932391A392A1892B82A37894F2
:102100000895CF93DF93CEE8D1E089918F3F11F00E
:102110000E946A1081E0C539D807B9F7C4E8D1E058
:1021200089918F3F11F00E946A1081E0CE38D80764
:10213000B9F7DF91CF910895AF92BF92DF92EF92FE
:10214000FF920F931F93CF93DF938C01D62EC62F50
:10215000D0E0CE0182579E4F7C01FC0120812F3FB1
:1021600009F44DC0F894E22FE295EF70F0E031A150
:102170002F7081E090E001C0880F2A95EAF7932F35
:10218000982B91A392A18095892382A378940E9491
:102190006510E4E8F1E04EE851E021E030E0B12CD8
:1021A000A12C61916F3FA9F1A62FA295AF70B0E06D
:1021B00090968C9190E06F7002C0959587956A9586
:1021C000E2F780FD26C0C901A82AB92A220F331FD1
:1021D0004E175F0731F7F70180818F3F11F00E94A2
:1021E0006A1061E0A114B10409F460E08D2D0E9431
:1021F0006710CC0FDD1FC00FD11FB982A882DF91FD
:10220000CF911F910F91FF90EF90DF90BF90AF9013
:10221000089590E080E0D8CF0E9481108EE0EBE539
:10222000F2E0DF01982F1D929A95E9F7EDE4F2E0D4
:10223000DF011D928A95E9F787E00E945D110E94F7
:1022400050100895AEE0B0E0E8E2F1E10C947C18A3
:102250008E010F5F1F4F8EE0F80111928A95E9F70A
:10226000F12C6F2DC8010E949C10F394F7E0FF122F
:10227000F8CF4EE050E0B8018DE492E00E94A6183D
:1022800021E0009709F420E0892B41F08EE0F8016D
:10229000ADE4B2E001900D928A95E1F747E06BE57D
:1022A00072E08DE492E00E945E11182F0E9454109B
:1022B000812F2E96E5E00C9498180895B0E0A0E0E8
:1022C000E4E6F1E10C9479186C017B01042FC22F34
:1022D000222379F081E080932F020E94EB149093E7
:1022E0002E0280932D0280E0CDB7DEB7E8E00C949B
:1022F0009518D0912F02DD23B1F380912D0290919A
:102300002E020E940315059770F310E0000F111FB5
:10231000A801B601C7010E94A618892B31F0A801B7
:10232000B601C7010E94B318CD2F10922F028C2F37
:10233000DBCF0E948A140E9477150E94680D0E94CC
:1023400087150E949B0D0E9498150E94A6150E9459
:10235000D3150E94DF150E947B0DF7CF9093970154
:10236000809396010895CF93DF93EB0186319C47CC
:1023700011F50E949B0B9D81992399F08A7A91E037
:1023800009F490E090933002811109C089E20E9423
:1023900018140E94160C80E0DF91CF91089585E318
:1023A000F6CF80913002811104C089E20E9420148E
:1023B000F0CF85E3FBCF81E0EFCFCF93DF93EC014C
:1023C000FB018581882309F4D2C09E013057233256
:1023D000310508F0B2C00E949C0C90934C0280938F
:1023E0004B02FE01E150F047E232F10520F4E45ED9
:1023F000F64E0C94691880914B02816080934B02D9
:1024000093C080914C02886080934C028DC0809173
:102410004B028260F3CF80914B028460EFCF8091BA
:102420004B028860EBCF80914C028160EDCF8091B0
:102430004C028260E9CF80914B028061DFCF8091B6
:102440004B028062DBCF80914B028064D7CF0E9429
:102450001F0780914B028068D1CF80914B028C6026
:10246000CDCF80914C028360CFCF80914B028E7F85
:10247000C5CF80914C02877FC7CF80914B028D7F63
:10248000BDCF80914B028B7FB9CF80914B02877F6C
:10249000B5CF80914C028E7FB7CF80914C028D7F5B
:1024A000B3CF80914B028F7EA9CF80914B028F7D5D
:1024B000A5CF80914B028F7BA1CF0E941F078091F7
:1024C0004B028F779BCF80914B02837F97CF809178
:1024D0004C028C7F99CF80914B0282FB992790F917
:1024E00021E0922790FB82F990FB83F987CF8091BE
:1024F0004C02982F909591708E7F892B90FB81F9DB
:1025000083CF90914B02892F8F7B96FF806476CF8B
:102510000E941F0790914B02892F97FB87F98058E3
:102520006DCF81E00E94220D80914B0290914C0270
:102530000E94A10C0E941F0780E0DF91CF910895B7
:1025400080E0F0CF90914B02892F8F7E94FF8061C5
:1025500055CF90914B02892F8E7F90FF81604ECF97
:1025600090914C02892F877F93FF88604DCF81E047
:10257000E4CF0F931F93CF93DF93C42FD22FFC018F
:1025800085818823C9F0409333020E94EB14909315
:1025900032028093310280E28C0F883040F4C770A1
:1025A00081E001C0880FCA95EAF70E94D504DF9147
:1025B000CF911F910F91089510913302141332C0DF
:1025C00080913102909132020E940315883C91055E
:1025D00048F5C0E2CD0F1D17B9F080E2810F8830B9
:1025E00040F4177081E001C0880F1A95EAF70E9445
:1025F000DC04C83048F481E09D2F977001C0880F3B
:102600009A95EAF70E94D504802F0E94CC04C83026
:1026100070F6D77081E001C0880FDA95EAF70E9462
:10262000DC04C5CF80E28C0F883008F6C77081E0EB
:1026300001C0880FCA95EAF7F2CF0F93DB018851EA
:102640009C4787309105A0F5FC01E25CF64E0C94A6
:10265000691806E221EE41EE6AE17CE7CD010E94B5
:10266000B91280E00F91089507E225EE45EE6BE187
:102670007CE7F4CF06E221EE40EE68E17CE7EECFA6
:1026800007E225EE44EE69E17CE7E8CF06E221EEC1
:1026900042EE6CE17CE7E2CF07E225EE46EE6DE12B
:1026A0007CE7DCCF08E221E045EE6EE17CE7D6CFA7
:1026B00015968C91882319F010923302D3CF81E0C4
:1026C000D1CF90933902809338020895E091380277
:1026D000F0913902309729F00190F081E02D0995B1
:1026E000089580E00895E0913802F0913902309722
:1026F00021F00280F381E02D09950895A3E0B0E078
:10270000E4E8F3E10C947F1820913602309137020F
:1027100028173907A1F09093370280933602E09191
:102720003802F0913902309751F023E029839B83DE
:102730008A830084F185E02DCE01019609952396C8
:10274000E2E00C949B18A3E0B0E0E9EAF3E10C941A
:102750007F18209134023091350228173907A1F0F3
:102760009093350280933402E0913802F09139025F
:10277000309751F024E029839B838A830084F1857C
:10278000E02DCE01019609952396E2E00C949B186A
:1027900040910001509101019A012E5F3F4F485F27
:1027A0005F4F80E02417350709F40895F9019191EE
:1027B0009F019923B9F38F5FF5CF882371F02091A2
:1027C000000130910101F9013296285F3F4F91914C
:1027D000981729F0E217F307D1F780E0089581E018
:1027E00008959C01FC0132969FEF80E041914617CD
:1027F00051F09F3F19F4411101C0982F8F5F86302F
:10280000A9F79F3F09F40895290F311D97FD3A95C7
:10281000F90162830895FC013296089621912613EE
:1028200003C0DF0111971C92E817F907B9F7089563
:10283000682F80910001909101010E94F113089589
:10284000682F80910001909101010E940B1408955E
:10285000E0910001F0910101329686E0DF011D92C6
:102860008A95E9F7089508950E943314089591E038
:10287000811101C090E09093040160910201709178
:10288000030180910401909105010E943414089580
:102890008091040108958093030160910201709179
:1028A000030180910401909105010E943414089560
:1028B000809103010895809302016091020170915B
:1028C000030180910401909105010E943414089540
:1028D000809102010895089508950E946C1408954E
:1028E000089508950E946B140895CF930E94701468
:1028F0000E9422110E947114C0E08C2F0E94571078
:10290000892B31F4CF5FC730C1F780E0CF910895B4
:1029100081E0FCCF08951F921FB61F9211248F9360
:102920009F93AF93BF9380913A02811113C080911E
:10293000690290916A02A0916B02B0916C0241967B
:10294000A11DB11D8093690290936A02A0936B024E
:10295000B0936C02BF91AF919F918F911F901FBE5A
:102960001F90189580913D02882331F10E94C80381
:1029700010923A0288E190E020E40FB6F894A8950E
:10298000809360000FBE2093600083B7817F8460D6
:1029900083BF83B7816083BF7894889583B78E7F28
:1029A00083BF0FB6F894A8958091600088618093EA
:1029B0006000109260000FBE08950E941F070E94E1
:1029C000CD03089582E084BD93E095BD9AEF97BD55
:1029D00080936E0008952FB7F894809169029091CA
:1029E0006A02A0916B02B0916C022FBF08952FB7BD
:1029F000F8946091690270916A0280916B029091E3
:102A00006C022FBF08959C014FB7F8948091690222
:102A100090916A02A0916B02B0916C024FBF821B31
:102A2000930B089578941F921FB61F9211248F93D1
:102A30009F93AF93BF938091690290916A02A09196
:102A40006B02B0916C020196A11DB11D80936902C9
:102A500090936A02A0936B02B0936C02BF91AF9106
:102A60009F918F911F901FBE1F90189588E198E04D
:102A70000FB6F894A895809360000FBE9093600005
:102A8000A895F894D8E0CEEF28E3299320E0299385
:102A900014BEFFCF089588E198E00FB6F894A8958A
:102AA000809360000FBE90936000FFCF80919402EE
:102AB000882369F0109294020E94EB1490933C02D8
:102AC00080933B0210923D0280913D0208958091D7
:102AD0003D028111F9CF80913B0290913C020E940E
:102AE0000315069788F381E080933D02EDCF0E94A5
:102AF000EB1490933C0280933B0280E890E00FB689
:102B0000F89480936100909361000FBE08950E9435
:102B10004E18539A80E0815019F453987894089590
:102B2000A895EFE9FFE03197F1F700C00000F3CF7F
:102B30000E9458160E9461132FEF80E792E0215007
:102B400080409040E1F700C000000895CF930E94BC
:102B50005615CCE0811120C0CF9108950E94B21487
:102B60000E9475148823C1F0F8949AB15B9A892F5A
:102B70008C608AB98BB18C278BB92FE738E381E061
:102B8000215030408040E1F700C000008BB18C271D
:102B90008BB99AB95B9878940E9456158111DECF53
:102BA0000E94DD14D9CF0E945E1780919A0288237B
:102BB00029F08091780284FD0E94A60D0895089561
:102BC000FF920F931F93CF93DF93D82F8B01F42E97
:102BD000C5E0D13039F0D33071F0CDB7DEB7E5E0E4
:102BE0000C9498188091780284FF0EC06F2DC80154
:102BF0000E945417F2CF8091B10284FF05C06F2D5F
:102C0000C8010E945917E9CF0E945E178FE19EE428
:102C10000197F1F700C00000C150D9F6DECFB0E057
:102C2000A0E0E5E1F6E10C947918E82E8B01EA01C9
:102C30006A0183E0D694C7948A95E1F7F12CFC14DD
:102C40001D0468F0C77031F04C2F50E0B8018E2D94
:102C50000E94E015CDB7DEB7E8E00C94951848E087
:102C600050E0B8018E2D0E94E015085F1F4FF394CD
:102C7000E6CF43E050E0BC0183E00E940F160895C8
:102C8000CF93DF93EC010E94481448E050E0BE016E
:102C900081E00E940F1688E0FE01A3E4B2E00190FB
:102CA0000D928A95E1F7DF91CF91089508950895E7
:102CB00086E091E00895FC0180818076803241F4C5
:102CC00081818330C9F130F48130F1F0823041F1FB
:102CD00080E008958A30B9F18B30C9F18930C1F7AD
:102CE000828193818115924069F484819581892B39
:102CF00049F481E08093420286819781909341025A
:102D0000809340028FEF089584819581892B01F78C
:102D100083E492E0909396028093950288E0089570
:102D20000E94681480933F028FE392E09093960292
:102D30008093950281E008950E94481480933E029A
:102D40008EE392E0F3CF83810E945B14C1CF848134
:102D50009581892B09F0BCCF82810E943714B8CFAE
:102D6000CF932091400230914102232B79F0C09102
:102D70004202C13059F4FC0180810E944B14109230
:102D80004102109240028C2FCF910895CFEFFBCFDC
:102D90000895FC019381933051F130F49130B9F0F2
:102DA0009230E9F080E008959132D9F19232D1F772
:102DB00084819581009709F446C0019799F78DEEBB
:102DC00091E0909396028093950282E308958BEBB5
:102DD00091E0909396028093950282E1089580E8B5
:102DE00091E090939602809395028BE308958281FF
:102DF000813079F0882329F08230A1F68DEC91E0C2
:102E0000E8CF89EE91E0909396028093950284E05A
:102E1000089581EE91E0909396028093950286E06A
:102E2000089584819581009731F0019709F0BACF18
:102E30008BEA91E002C082E991E090939602809340
:102E4000950289E008958FE192E090939602809335
:102E5000950284E408951F93CF93DF93E82F792F91
:102E6000162FEA01888184FF1CC0298188E8282761
:102E70002983CE010296DC012E2F372F512F5E0FB2
:102E8000F90121912D939F01452F4E1B1416C4F378
:102E9000612F0E9466011C5F1883DF91CF911F9103
:102EA00008958AE58883E5CF48E752E00E942B1712
:102EB000089541EB52E00E942B170895CF93DF93C2
:102EC00060919702635067FD12C080919302CCE03D
:102ED000D0E0C81BD109C556DD4F809192028031E8
:102EE00008F054C0CE010E94C8161092970280913B
:102EF000110184FF3EC0809110018F3FD1F1C82F96
:102F0000893008F0C8E0982F9C1B90931001909195
:102F10006D0228E8922790936D028823E9F0809152
:102F20009502909196022091910226FFAEC0FC017D
:102F30002C2FAEE6B2E034913D9331962150D9F773
:102F40009C012F5F3F4F8FEF8C0F820F932F911DAE
:102F500090939602809395026C2F8EE692E00E94E9
:102F60006601CC5FCC3019F08FEF80931001C093D5
:102F7000110184E199B19C7031F48150D9F710921C
:102F8000980210929002DF91CF9108958D3209F04E
:102F900069C0683009F0A9CF83EC80936D028AE59F
:102FA00080931101109291028881807671F0CE0198
:102FB0000E945B168F3FC1F4988197FD8E8190E847
:102FC000909391028093100190CF2A811092760203
:102FD0009981911111C01092770226E732E082E0C8
:102FE00030939602209395029F819111EBCF9E81A1
:102FF000981740F7892FE6CF953029F4209398024F
:1030000026E732E0EDCF963099F49B81913021F4A0
:10301000CE010E94C91608C09230D1F39330C1F39B
:103020009132B1F39232A1F390E490939102C2CF26
:10303000983089F0993019F420939A02E1CF9A30B0
:1030400071F09B30E9F69BE4909379029093B20281
:1030500090938502D5CF2AE932E081E0C1CF26E7FF
:1030600032E0FBCF8091910287FF3FCFCE010E94DB
:10307000B0168F3F21F48EE18093110136CF882363
:1030800009F433CF1092100130CFDC012C2FEEE683
:10309000F2E03D9131932150E1F752CFCF93DF938E
:1030A000E9E6F0E0808188608083E99AC8E7D2E0B1
:1030B0008BE48983A1EBB2E011968C931197E4E83D
:1030C000F2E081838AE588838C938083DF91CF91BE
:1030D0000895EE0FFF1F0590F491E02D09942F92B3
:1030E0003F924F925F926F927F928F929F92AF9298
:1030F000BF92CF92DF92EF92FF920F931F93CF93E5
:10310000DF93CDB7DEB7CA1BDB0B0FB6F894DEBF7B
:103110000FBECDBF09942A88398848885F846E84A1
:103120007D848C849B84AA84B984C884DF80EE80EB
:10313000FD800C811B81AA81B981CE0FD11D0FB6F4
:10314000F894DEBF0FBECDBFED010895FB01DC0199
:1031500004C08D910190801921F441505040C8F76E
:10316000881B990B0895FB01DC0102C001900D92B0
:1031700041505040D8F70895F999FECF92BD81BDD6
:10318000F89A992780B50895A8E1B0E042E050E0B0
:103190000C940019DC01A40FB51F4150504048F0B9
:1031A000CB01840F951F2E910E94DB184150504097
:1031B000D0F70895262FF999FECF92BD81BDF89AD8
:1031C000019700B4021639F01FBA20BD0FB6F8946B
:1031D000FA9AF99A0FBE08950396272F0E94DB18DA
:1031E0000E94DA18252F0E94DB18242F0C94DB187C
:1031F0000196272F0E94DB180C94DA18DC01CB0112
:10320000FC01F999FECF06C0F2BDE1BDF89A3196F6
:1032100000B40D9241505040B8F70895F894FFCF94
:103220002405240574057405D90553055305530574
:10323000F5056606750675063512A9123D120712C8
:103240000B1241120F12451251121B12A2121F1221
:10325000551223125912811227125D1288122D1253
:1032600063126B121312491217124D1231126712A8
:1032700077129112A01201123912B0123A134013B0
:0A3280002913341346134C135213A4
:10328A000A0200000100581440165716561639163D
:10329A00FF5AE200E900EA00B500B600B700CD0027
:1032AA008301CC008A0192019401210223022402A3
:1032BA002502260227022A02B300B4006F0070001A
:1032CA009F01CB019F02A002818283E200E900EA0A
:1032DA0000B500B600B700CD008301CC008A019288
:1032EA000194012102230224022502260227022A2E
:1032FA0002B300B4006F0070009F01CB019F02A0CF
:10330A000281828364636261603534333231909121
:06331A0094959697300027
:00000001FF
